{
  "contractName": "BatchDeposit",
  "abi": [
    {
      "inputs": [
        {
          "internalType": "address",
          "name": "depositContractAddr",
          "type": "address"
        },
        {
          "internalType": "uint256",
          "name": "initialFee",
          "type": "uint256"
        }
      ],
      "stateMutability": "nonpayable",
      "type": "constructor"
    },
    {
      "anonymous": false,
      "inputs": [
        {
          "indexed": false,
          "internalType": "uint256",
          "name": "previousFee",
          "type": "uint256"
        },
        {
          "indexed": false,
          "internalType": "uint256",
          "name": "newFee",
          "type": "uint256"
        }
      ],
      "name": "FeeChanged",
      "type": "event"
    },
    {
      "anonymous": false,
      "inputs": [
        {
          "indexed": true,
          "internalType": "address",
          "name": "payee",
          "type": "address"
        },
        {
          "indexed": false,
          "internalType": "uint256",
          "name": "weiAmount",
          "type": "uint256"
        }
      ],
      "name": "FeeCollected",
      "type": "event"
    },
    {
      "anonymous": false,
      "inputs": [
        {
          "indexed": true,
          "internalType": "address",
          "name": "previousOwner",
          "type": "address"
        },
        {
          "indexed": true,
          "internalType": "address",
          "name": "newOwner",
          "type": "address"
        }
      ],
      "name": "OwnershipTransferred",
      "type": "event"
    },
    {
      "anonymous": false,
      "inputs": [
        {
          "indexed": true,
          "internalType": "address",
          "name": "payee",
          "type": "address"
        },
        {
          "indexed": false,
          "internalType": "uint256",
          "name": "weiAmount",
          "type": "uint256"
        }
      ],
      "name": "Withdrawn",
      "type": "event"
    },
    {
      "inputs": [],
      "name": "owner",
      "outputs": [
        {
          "internalType": "address",
          "name": "",
          "type": "address"
        }
      ],
      "stateMutability": "view",
      "type": "function",
      "constant": true
    },
    {
      "inputs": [],
      "name": "renounceOwnership",
      "outputs": [],
      "stateMutability": "nonpayable",
      "type": "function"
    },
    {
      "inputs": [
        {
          "internalType": "address",
          "name": "newOwner",
          "type": "address"
        }
      ],
      "name": "transferOwnership",
      "outputs": [],
      "stateMutability": "nonpayable",
      "type": "function"
    },
    {
      "inputs": [
        {
          "internalType": "uint256",
          "name": "newFee",
          "type": "uint256"
        }
      ],
      "name": "changeFee",
      "outputs": [],
      "stateMutability": "nonpayable",
      "type": "function"
    },
    {
      "inputs": [],
      "name": "fee",
      "outputs": [
        {
          "internalType": "uint256",
          "name": "",
          "type": "uint256"
        }
      ],
      "stateMutability": "view",
      "type": "function",
      "constant": true
    },
    {
      "inputs": [
        {
          "internalType": "address payable",
          "name": "receiver",
          "type": "address"
        }
      ],
      "name": "withdraw",
      "outputs": [],
      "stateMutability": "nonpayable",
      "type": "function"
    },
    {
      "inputs": [
        {
          "internalType": "bytes[]",
          "name": "pubkeys",
          "type": "bytes[]"
        },
        {
          "internalType": "bytes[]",
          "name": "withdrawal_credentials",
          "type": "bytes[]"
        },
        {
          "internalType": "bytes[]",
          "name": "signatures",
          "type": "bytes[]"
        },
        {
          "internalType": "bytes32[]",
          "name": "deposit_data_roots",
          "type": "bytes32[]"
        }
      ],
      "name": "batchDeposit",
      "outputs": [],
      "stateMutability": "payable",
      "type": "function",
      "payable": true
    }
  ],
  "bytecode": "0x60806040523480156200001157600080fd5b50604051620014a0380380620014a0833981810160405281019062000037919062000176565b60006200005262000140640100000000026401000000009004565b9050806000806101000a81548173ffffffffffffffffffffffffffffffffffffffff021916908373ffffffffffffffffffffffffffffffffffffffff1602179055508073ffffffffffffffffffffffffffffffffffffffff16600073ffffffffffffffffffffffffffffffffffffffff167f8be0079c531659141344cd1fd0a4f28419497f9722a3daafe3b4186f6b6457e060405160405180910390a35081600160006101000a81548173ffffffffffffffffffffffffffffffffffffffff021916908373ffffffffffffffffffffffffffffffffffffffff16021790555080600281905550505062000229565b600033905090565b6000815190506200015981620001f5565b92915050565b60008151905062000170816200020f565b92915050565b600080604083850312156200018a57600080fd5b60006200019a8582860162000148565b9250506020620001ad858286016200015f565b9150509250929050565b6000620001c482620001cb565b9050919050565b600073ffffffffffffffffffffffffffffffffffffffff82169050919050565b6000819050919050565b6200020081620001b7565b81146200020c57600080fd5b50565b6200021a81620001eb565b81146200022657600080fd5b50565b61126780620002396000396000f3fe60806040526004361061008d576000357c0100000000000000000000000000000000000000000000000000000000900480638da5cb5b1161006b5780638da5cb5b146100fb578063ca0bfcce14610126578063ddca3f4314610142578063f2fde38b1461016d5761008d565b806351cff8d9146100925780636a1db1bf146100bb578063715018a6146100e4575b600080fd5b34801561009e57600080fd5b506100b960048036038101906100b49190610b5d565b610196565b005b3480156100c757600080fd5b506100e260048036038101906100dd9190610c5b565b610351565b005b3480156100f057600080fd5b506100f9610471565b005b34801561010757600080fd5b506101106105c6565b60405161011d9190610f5c565b60405180910390f35b610140600480360381019061013b9190610b86565b6105ef565b005b34801561014e57600080fd5b5061015761088b565b60405161016491906110b7565b60405180910390f35b34801561017957600080fd5b50610194600480360381019061018f9190610b34565b610895565b005b61019e610a59565b73ffffffffffffffffffffffffffffffffffffffff166000809054906101000a900473ffffffffffffffffffffffffffffffffffffffff1673ffffffffffffffffffffffffffffffffffffffff161461022c576040517f08c379a000000000000000000000000000000000000000000000000000000000815260040161022390611057565b60405180910390fd5b600073ffffffffffffffffffffffffffffffffffffffff168173ffffffffffffffffffffffffffffffffffffffff16141561029c576040517f08c379a000000000000000000000000000000000000000000000000000000000815260040161029390611017565b60405180910390fd5b60003073ffffffffffffffffffffffffffffffffffffffff163190508173ffffffffffffffffffffffffffffffffffffffff166108fc829081150290604051600060405180830381858888f193505050501580156102fe573d6000803e3d6000fd5b508173ffffffffffffffffffffffffffffffffffffffff167f7084f5476618d8e60b11ef0d7d3f06914655adb8793e28ff7f018d4c76d505d58260405161034591906110b7565b60405180910390a25050565b610359610a59565b73ffffffffffffffffffffffffffffffffffffffff166000809054906101000a900473ffffffffffffffffffffffffffffffffffffffff1673ffffffffffffffffffffffffffffffffffffffff16146103e7576040517f08c379a00000000000000000000000000000000000000000000000000000000081526004016103de90611057565b60405180910390fd5b60025481141561042c576040517f08c379a000000000000000000000000000000000000000000000000000000000815260040161042390611037565b60405180910390fd5b7f5fc463da23c1b063e66f9e352006a7fbe8db7223c455dc429e881a2dfe2f94f16002548260405161045f9291906110d2565b60405180910390a18060028190555050565b610479610a59565b73ffffffffffffffffffffffffffffffffffffffff166000809054906101000a900473ffffffffffffffffffffffffffffffffffffffff1673ffffffffffffffffffffffffffffffffffffffff1614610507576040517f08c379a00000000000000000000000000000000000000000000000000000000081526004016104fe90611057565b60405180910390fd5b600073ffffffffffffffffffffffffffffffffffffffff166000809054906101000a900473ffffffffffffffffffffffffffffffffffffffff1673ffffffffffffffffffffffffffffffffffffffff167f8be0079c531659141344cd1fd0a4f28419497f9722a3daafe3b4186f6b6457e060405160405180910390a360008060006101000a81548173ffffffffffffffffffffffffffffffffffffffff021916908373ffffffffffffffffffffffffffffffffffffffff160217905550565b60008060009054906101000a900473ffffffffffffffffffffffffffffffffffffffff16905090565b6000633b9aca0034816105fe57fe5b061461063f576040517f08c379a000000000000000000000000000000000000000000000000000000000815260040161063690611077565b60405180910390fd5b6801bc16d674ec80000034101561068b576040517f08c379a000000000000000000000000000000000000000000000000000000000815260040161068290611097565b60405180910390fd5b6000888890506002540290506801bc16d674ec80000089899050823403816106af57fe5b04146106f0576040517f08c379a00000000000000000000000000000000000000000000000000000000081526004016106e790610ff7565b60405180910390fd5b3373ffffffffffffffffffffffffffffffffffffffff167f06c5efeff5c320943d265dc4e5f1af95ad523555ce0c1957e367dda5514572df8260405161073691906110b7565b60405180910390a260008090505b8989905081101561087f57600160009054906101000a900473ffffffffffffffffffffffffffffffffffffffff1673ffffffffffffffffffffffffffffffffffffffff1663228951186801bc16d674ec8000008c8c858181106107a357fe5b90506020028101906107b591906110fb565b8c8c878181106107c157fe5b90506020028101906107d391906110fb565b8c8c898181106107df57fe5b90506020028101906107f191906110fb565b8c8c8b8181106107fd57fe5b905060200201356040518963ffffffff167c01000000000000000000000000000000000000000000000000000000000281526004016108429796959493929190610f77565b6000604051808303818588803b15801561085b57600080fd5b505af115801561086f573d6000803e3d6000fd5b5050505050600181019050610744565b50505050505050505050565b6000600254905090565b61089d610a59565b73ffffffffffffffffffffffffffffffffffffffff166000809054906101000a900473ffffffffffffffffffffffffffffffffffffffff1673ffffffffffffffffffffffffffffffffffffffff161461092b576040517f08c379a000000000000000000000000000000000000000000000000000000000815260040161092290611057565b60405180910390fd5b600073ffffffffffffffffffffffffffffffffffffffff168173ffffffffffffffffffffffffffffffffffffffff16141561099b576040517f08c379a000000000000000000000000000000000000000000000000000000000815260040161099290610fd7565b60405180910390fd5b8073ffffffffffffffffffffffffffffffffffffffff166000809054906101000a900473ffffffffffffffffffffffffffffffffffffffff1673ffffffffffffffffffffffffffffffffffffffff167f8be0079c531659141344cd1fd0a4f28419497f9722a3daafe3b4186f6b6457e060405160405180910390a3806000806101000a81548173ffffffffffffffffffffffffffffffffffffffff021916908373ffffffffffffffffffffffffffffffffffffffff16021790555050565b600033905090565b600081359050610a70816111ec565b92915050565b600081359050610a8581611203565b92915050565b60008083601f840112610a9d57600080fd5b8235905067ffffffffffffffff811115610ab657600080fd5b602083019150836020820283011115610ace57600080fd5b9250929050565b60008083601f840112610ae757600080fd5b8235905067ffffffffffffffff811115610b0057600080fd5b602083019150836020820283011115610b1857600080fd5b9250929050565b600081359050610b2e8161121a565b92915050565b600060208284031215610b4657600080fd5b6000610b5484828501610a61565b91505092915050565b600060208284031215610b6f57600080fd5b6000610b7d84828501610a76565b91505092915050565b6000806000806000806000806080898b031215610ba257600080fd5b600089013567ffffffffffffffff811115610bbc57600080fd5b610bc88b828c01610ad5565b9850985050602089013567ffffffffffffffff811115610be757600080fd5b610bf38b828c01610ad5565b9650965050604089013567ffffffffffffffff811115610c1257600080fd5b610c1e8b828c01610ad5565b9450945050606089013567ffffffffffffffff811115610c3d57600080fd5b610c498b828c01610a8b565b92509250509295985092959890939650565b600060208284031215610c6d57600080fd5b6000610c7b84828501610b1f565b91505092915050565b610c8d81611174565b82525050565b610c9c81611198565b82525050565b6000610cae8385611152565b9350610cbb8385846111cc565b610cc4836111db565b840190509392505050565b6000610cdc602683611163565b91507f4f776e61626c653a206e6577206f776e657220697320746865207a65726f206160008301527f64647265737300000000000000000000000000000000000000000000000000006020830152604082019050919050565b6000610d42603783611163565b91507f42617463684465706f7369743a20416d6f756e74206973206e6f7420616c696760008301527f6e65642077697468207075626b657973206e756d6265720000000000000000006020830152604082019050919050565b6000610da8602183611163565b91507f596f752063616e2774206275726e20746865736520657468206469726563746c60008301527f79000000000000000000000000000000000000000000000000000000000000006020830152604082019050919050565b6000610e0e602683611163565b91507f466565206d75737420626520646966666572656e742066726f6d20637572726560008301527f6e74206f6e6500000000000000000000000000000000000000000000000000006020830152604082019050919050565b6000610e74602083611163565b91507f4f776e61626c653a2063616c6c6572206973206e6f7420746865206f776e65726000830152602082019050919050565b6000610eb4603083611163565b91507f42617463684465706f7369743a206465706f7369742076616c7565206e6f742060008301527f6d756c7469706c65206f662067776569000000000000000000000000000000006020830152604082019050919050565b6000610f1a601f83611163565b91507f42617463684465706f7369743a20416d6f756e7420697320746f6f206c6f77006000830152602082019050919050565b610f56816111c2565b82525050565b6000602082019050610f716000830184610c84565b92915050565b60006080820190508181036000830152610f9281898b610ca2565b90508181036020830152610fa7818789610ca2565b90508181036040830152610fbc818587610ca2565b9050610fcb6060830184610c93565b98975050505050505050565b60006020820190508181036000830152610ff081610ccf565b9050919050565b6000602082019050818103600083015261101081610d35565b9050919050565b6000602082019050818103600083015261103081610d9b565b9050919050565b6000602082019050818103600083015261105081610e01565b9050919050565b6000602082019050818103600083015261107081610e67565b9050919050565b6000602082019050818103600083015261109081610ea7565b9050919050565b600060208201905081810360008301526110b081610f0d565b9050919050565b60006020820190506110cc6000830184610f4d565b92915050565b60006040820190506110e76000830185610f4d565b6110f46020830184610f4d565b9392505050565b6000808335600160200384360303811261111457600080fd5b80840192508235915067ffffffffffffffff82111561113257600080fd5b60208301925060018202360383131561114a57600080fd5b509250929050565b600082825260208201905092915050565b600082825260208201905092915050565b600061117f826111a2565b9050919050565b6000611191826111a2565b9050919050565b6000819050919050565b600073ffffffffffffffffffffffffffffffffffffffff82169050919050565b6000819050919050565b82818337600083830152505050565b6000601f19601f8301169050919050565b6111f581611174565b811461120057600080fd5b50565b61120c81611186565b811461121757600080fd5b50565b611223816111c2565b811461122e57600080fd5b5056fea2646970667358221220ee8b09c3c783c69b12432e5da2f360e8b8ade1a1a1c3b48a87e814aef909e02a64736f6c63430006080033",
  "immutableReferences": {},
  "source": "\n//                                                                           ,,---.\n//                                                                         .-^^,_  `.\n//                                                                    ;`, / 3 ( o\\   }\n//         __             __                     ___              __  \\  ;   \\`, /  ,'\n//        /\\ \\__         /\\ \\                  /'___\\ __         /\\ \\ ;_/^`.__.-\"  ,'\n//    ____\\ \\ ,_\\    __  \\ \\ \\/'\\      __     /\\ \\__//\\_\\    ____\\ \\ \\___     `---'\n//   /',__\\\\ \\ \\/  /'__`\\ \\ \\ , <    /'__`\\   \\ \\ ,__\\/\\ \\  /',__\\\\ \\  _ `\\\n//  /\\__, `\\\\ \\ \\_/\\ \\L\\.\\_\\ \\ \\\\`\\ /\\  __/  __\\ \\ \\_/\\ \\ \\/\\__, `\\\\ \\ \\ \\ \\\n//  \\/\\____/ \\ \\__\\ \\__/.\\_\\\\ \\_\\ \\_\\ \\____\\/\\_\\\\ \\_\\  \\ \\_\\/\\____/ \\ \\_\\ \\_\\\n//   \\/___/   \\/__/\\/__/\\/_/ \\/_/\\/_/\\/____/\\/_/ \\/_/   \\/_/\\/___/   \\/_/\\/_/\n\n// stakefish ETH2 Batch Deposit contract\n// this contract allows deposit of multiple validators in one tx\n// and also collects the validator fee for stakefish\n\n// TODO: Change this licese to a more approriate one\n// SPDX-License-Identifier: Apache2\n\npragma solidity 0.6.8;\n\n// Needed for multi dimension arrays\npragma experimental ABIEncoderV2;\n\nimport \"../node_modules/@openzeppelin/contracts/access/Ownable.sol\";\n\n// Deposit contract interface\ninterface IDepositContract {\n    /// @notice A processed deposit event.\n    event DepositEvent(\n        bytes pubkey,\n        bytes withdrawal_credentials,\n        bytes amount,\n        bytes signature,\n        bytes index\n    );\n\n    /// @notice Submit a Phase 0 DepositData object.\n    /// @param pubkey A BLS12-381 public key.\n    /// @param withdrawal_credentials Commitment to a public key for withdrawals.\n    /// @param signature A BLS12-381 signature.\n    /// @param deposit_data_root The SHA-256 hash of the SSZ-encoded DepositData object.\n    /// Used as a protection against malformed input.\n    function deposit(\n        bytes calldata pubkey,\n        bytes calldata withdrawal_credentials,\n        bytes calldata signature,\n        bytes32 deposit_data_root\n    ) external payable;\n\n    /// @notice Query the current deposit root hash.\n    /// @return The deposit root hash.\n    function get_deposit_root() external view returns (bytes32);\n\n    /// @notice Query the current deposit count.\n    /// @return The deposit count encoded as a little endian 64-bit number.\n    function get_deposit_count() external view returns (bytes memory);\n}\n\ncontract BatchDeposit is Ownable {\n    uint constant GWEI = 1e9;\n\n    address depositContract;\n    uint256 private _fee;\n\n    event FeeChanged(uint256 previousFee, uint256 newFee);\n    event Withdrawn(address indexed payee, uint256 weiAmount);\n    event FeeCollected(address indexed payee, uint256 weiAmount);\n\n    constructor(address depositContractAddr, uint256 initialFee) public {\n        depositContract = depositContractAddr;\n        _fee = initialFee;\n    }\n\n    /**\n     * @dev Change the validator fee (`newOwner`).\n     * Can only be called by the current owner.\n     */\n    function changeFee(uint256 newFee) public onlyOwner {\n        require(newFee != _fee, \"Fee must be different from current one\");\n\n        emit FeeChanged(_fee, newFee);\n        _fee = newFee;\n    }\n\n    /**\n     * @dev Returns the address of the current owner.\n     */\n    function fee() public view returns (uint256) {\n        return _fee;\n    }\n\n    /**\n     * @dev Withdraw accumulated fee in the contract\n     *\n     * @param receiver The address whose funds will be withdrawn and transferred to.\n     * Can only be called by the current owner.\n    */\n    function withdraw(address payable receiver) public virtual onlyOwner {       \n        require(receiver != address(0), \"You can't burn these eth directly\");\n\n        uint256 amount = address(this).balance;\n        receiver.transfer(amount);\n        emit Withdrawn(receiver, amount);\n    }\n\n    /**\n    * @dev Performs a batch deposit, asking for an additional fee payment.\n    */\n    function batchDeposit(\n        bytes[] calldata pubkeys, \n        bytes[] calldata withdrawal_credentials, \n        bytes[] calldata signatures, \n        bytes32[] calldata deposit_data_roots\n    ) external payable {\n        // sanity checks\n        require(msg.value % GWEI == 0, \"BatchDeposit: deposit value not multiple of gwei\");\n        require(msg.value >= 32 ether, \"BatchDeposit: Amount is too low\");\n\n        uint256 collectedFee = _fee * pubkeys.length;\n        require(((msg.value - collectedFee) / pubkeys.length) == 32 ether, \"BatchDeposit: Amount is not aligned with pubkeys number\");\n\n        emit FeeCollected(msg.sender, collectedFee);\n\n        uint256 i = 0;\n        while (i < pubkeys.length) { \n            IDepositContract(depositContract).deposit{value: 32 ether}(pubkeys[i], withdrawal_credentials[i], signatures[i], deposit_data_roots[i]);\n            i += 1;\n        }\n    }\n}",
  "sourcePath": "/Users/dimiandre/Projects/batch-deposits/contracts/BatchDeposits.sol",
  "compiler": {
    "name": "solc",
    "version": "0.6.8+commit.0bbfe453.Linux.g++"
  },
  "schemaVersion": "3.2.5",
  "updatedAt": "2020-10-13T17:33:31.261Z",
  "networkType": "ethereum",
  "devdoc": {
    "methods": {
      "batchDeposit(bytes[],bytes[],bytes[],bytes32[])": {
        "details": "Performs a batch deposit, asking for an additional fee payment."
      },
      "changeFee(uint256)": {
        "details": "Change the validator fee (`newOwner`). Can only be called by the current owner."
      },
      "fee()": {
        "details": "Returns the address of the current owner."
      },
      "owner()": {
        "details": "Returns the address of the current owner."
      },
      "renounceOwnership()": {
        "details": "Leaves the contract without owner. It will not be possible to call `onlyOwner` functions anymore. Can only be called by the current owner.     * NOTE: Renouncing ownership will leave the contract without an owner, thereby removing any functionality that is only available to the owner."
      },
      "transferOwnership(address)": {
        "details": "Transfers ownership of the contract to a new account (`newOwner`). Can only be called by the current owner."
      },
      "withdraw(address)": {
        "details": "Withdraw accumulated fee in the contract",
        "params": {
          "receiver": "The address whose funds will be withdrawn and transferred to. Can only be called by the current owner."
        }
      }
    }
  },
  "userdoc": {
    "methods": {}
  }
}