{
  "contractName": "DepositContract",
  "abi": [
    {
      "inputs": [],
      "stateMutability": "nonpayable",
      "type": "constructor"
    },
    {
      "anonymous": false,
      "inputs": [
        {
          "indexed": false,
          "internalType": "bytes",
          "name": "pubkey",
          "type": "bytes"
        },
        {
          "indexed": false,
          "internalType": "bytes",
          "name": "withdrawal_credentials",
          "type": "bytes"
        },
        {
          "indexed": false,
          "internalType": "bytes",
          "name": "amount",
          "type": "bytes"
        },
        {
          "indexed": false,
          "internalType": "bytes",
          "name": "signature",
          "type": "bytes"
        },
        {
          "indexed": false,
          "internalType": "bytes",
          "name": "index",
          "type": "bytes"
        }
      ],
      "name": "DepositEvent",
      "type": "event"
    },
    {
      "inputs": [],
      "name": "get_deposit_root",
      "outputs": [
        {
          "internalType": "bytes32",
          "name": "",
          "type": "bytes32"
        }
      ],
      "stateMutability": "view",
      "type": "function",
      "constant": true
    },
    {
      "inputs": [],
      "name": "get_deposit_count",
      "outputs": [
        {
          "internalType": "bytes",
          "name": "",
          "type": "bytes"
        }
      ],
      "stateMutability": "view",
      "type": "function",
      "constant": true
    },
    {
      "inputs": [
        {
          "internalType": "bytes",
          "name": "pubkey",
          "type": "bytes"
        },
        {
          "internalType": "bytes",
          "name": "withdrawal_credentials",
          "type": "bytes"
        },
        {
          "internalType": "bytes",
          "name": "signature",
          "type": "bytes"
        },
        {
          "internalType": "bytes32",
          "name": "deposit_data_root",
          "type": "bytes32"
        }
      ],
      "name": "deposit",
      "outputs": [],
      "stateMutability": "payable",
      "type": "function",
      "payable": true
    },
    {
      "inputs": [
        {
          "internalType": "bytes4",
          "name": "interfaceId",
          "type": "bytes4"
        }
      ],
      "name": "supportsInterface",
      "outputs": [
        {
          "internalType": "bool",
          "name": "",
          "type": "bool"
        }
      ],
      "stateMutability": "pure",
      "type": "function",
      "constant": true
    }
  ],
  "bytecode": "0x60806040523480156200001157600080fd5b5060008090505b600160200381101562000130576002602182602081106200003557fe5b0154602183602081106200004557fe5b015460405160200180838152602001828152602001925050506040516020818303038152906040526040518082805190602001908083835b60208310620000a257805182526020820191506020810190506020830392506200007d565b6001836020036101000a038019825116818451168082178552505050505050905001915050602060405180830381855afa158015620000e5573d6000803e3d6000fd5b5050506040513d6020811015620000fb57600080fd5b8101908080519060200190929190505050602160018301602081106200011d57fe5b0181905550808060010191505062000018565b5061190b80620001416000396000f3fe60806040526004361061005c576000357c01000000000000000000000000000000000000000000000000000000009004806301ffc9a71461006157806322895118146100d3578063621fd13014610200578063c5f2892f14610290575b600080fd5b34801561006d57600080fd5b506100b96004803603602081101561008457600080fd5b8101908080357bffffffffffffffffffffffffffffffffffffffffffffffffffffffff191690602001909291905050506102bb565b604051808215151515815260200191505060405180910390f35b6101fe600480360360808110156100e957600080fd5b810190808035906020019064010000000081111561010657600080fd5b82018360208201111561011857600080fd5b8035906020019184600183028401116401000000008311171561013a57600080fd5b90919293919293908035906020019064010000000081111561015b57600080fd5b82018360208201111561016d57600080fd5b8035906020019184600183028401116401000000008311171561018f57600080fd5b9091929391929390803590602001906401000000008111156101b057600080fd5b8201836020820111156101c257600080fd5b803590602001918460018302840111640100000000831117156101e457600080fd5b90919293919293908035906020019092919050505061038d565b005b34801561020c57600080fd5b50610215611006565b6040518080602001828103825283818151815260200191508051906020019080838360005b8381101561025557808201518184015260208101905061023a565b50505050905090810190601f1680156102825780820380516001836020036101000a031916815260200191505b509250505060405180910390f35b34801561029c57600080fd5b506102a5611018565b6040518082815260200191505060405180910390f35b60007f01ffc9a7000000000000000000000000000000000000000000000000000000007bffffffffffffffffffffffffffffffffffffffffffffffffffffffff1916827bffffffffffffffffffffffffffffffffffffffffffffffffffffffff1916148061038657507f85640907000000000000000000000000000000000000000000000000000000007bffffffffffffffffffffffffffffffffffffffffffffffffffffffff1916827bffffffffffffffffffffffffffffffffffffffffffffffffffffffff1916145b9050919050565b603087879050146103e9576040517f08c379a000000000000000000000000000000000000000000000000000000000815260040180806020018281038252602681526020018061183a6026913960400191505060405180910390fd5b60208585905014610445576040517f08c379a00000000000000000000000000000000000000000000000000000000081526004018080602001828103825260368152602001806117d16036913960400191505060405180910390fd5b606083839050146104a1576040517f08c379a00000000000000000000000000000000000000000000000000000000081526004018080602001828103825260298152602001806118ad6029913960400191505060405180910390fd5b670de0b6b3a7640000341015610502576040517f08c379a00000000000000000000000000000000000000000000000000000000081526004018080602001828103825260268152602001806118876026913960400191505060405180910390fd5b6000633b9aca00348161051157fe5b0614610568576040517f08c379a00000000000000000000000000000000000000000000000000000000081526004018080602001828103825260338152602001806118076033913960400191505060405180910390fd5b6000633b9aca00348161057757fe5b04905067ffffffffffffffff80168111156105dd576040517f08c379a00000000000000000000000000000000000000000000000000000000081526004018080602001828103825260278152602001806118606027913960400191505060405180910390fd5b60606105e882611352565b90507f649bbc62d0e31342afea4e5cd82d4049e7e1ee912fc0889aa790803be39038c589898989858a8a61061d602054611352565b60405180806020018060200180602001806020018060200186810386528e8e82818152602001925080828437600081840152601f19601f82011690508083019250505086810385528c8c82818152602001925080828437600081840152601f19601f82011690508083019250505086810384528a818151815260200191508051906020019080838360005b838110156106c35780820151818401526020810190506106a8565b50505050905090810190601f1680156106f05780820380516001836020036101000a031916815260200191505b508681038352898982818152602001925080828437600081840152601f19601f820116905080830192505050868103825287818151815260200191508051906020019080838360005b83811015610754578082015181840152602081019050610739565b50505050905090810190601f1680156107815780820380516001836020036101000a031916815260200191505b509d505050505050505050505050505060405180910390a1600060028a8a6000700100000000000000000000000000000000026040516020018084848082843780830192505050826fffffffffffffffffffffffffffffffff19166fffffffffffffffffffffffffffffffff1916815260100193505050506040516020818303038152906040526040518082805190602001908083835b6020831061083b5780518252602082019150602081019050602083039250610818565b6001836020036101000a038019825116818451168082178552505050505050905001915050602060405180830381855afa15801561087d573d6000803e3d6000fd5b5050506040513d602081101561089257600080fd5b81019080805190602001909291905050509050600060028088886000906040926108be93929190611728565b6040516020018083838082843780830192505050925050506040516020818303038152906040526040518082805190602001908083835b6020831061091857805182526020820191506020810190506020830392506108f5565b6001836020036101000a038019825116818451168082178552505050505050905001915050602060405180830381855afa15801561095a573d6000803e3d6000fd5b5050506040513d602081101561096f57600080fd5b810190808051906020019092919050505060028989604090809261099593929190611728565b6000600102604051602001808484808284378083019250505082815260200193505050506040516020818303038152906040526040518082805190602001908083835b602083106109fb57805182526020820191506020810190506020830392506109d8565b6001836020036101000a038019825116818451168082178552505050505050905001915050602060405180830381855afa158015610a3d573d6000803e3d6000fd5b5050506040513d6020811015610a5257600080fd5b810190808051906020019092919050505060405160200180838152602001828152602001925050506040516020818303038152906040526040518082805190602001908083835b60208310610abc5780518252602082019150602081019050602083039250610a99565b6001836020036101000a038019825116818451168082178552505050505050905001915050602060405180830381855afa158015610afe573d6000803e3d6000fd5b5050506040513d6020811015610b1357600080fd5b810190808051906020019092919050505090506000600280848c8c604051602001808481526020018383808284378083019250505093505050506040516020818303038152906040526040518082805190602001908083835b60208310610b8f5780518252602082019150602081019050602083039250610b6c565b6001836020036101000a038019825116818451168082178552505050505050905001915050602060405180830381855afa158015610bd1573d6000803e3d6000fd5b5050506040513d6020811015610be657600080fd5b810190808051906020019092919050505060028660006801000000000000000002866040516020018084805190602001908083835b60208310610c3e5780518252602082019150602081019050602083039250610c1b565b6001836020036101000a0380198251168184511680821785525050505050509050018367ffffffffffffffff191667ffffffffffffffff1916815260180182815260200193505050506040516020818303038152906040526040518082805190602001908083835b60208310610cc95780518252602082019150602081019050602083039250610ca6565b6001836020036101000a038019825116818451168082178552505050505050905001915050602060405180830381855afa158015610d0b573d6000803e3d6000fd5b5050506040513d6020811015610d2057600080fd5b810190808051906020019092919050505060405160200180838152602001828152602001925050506040516020818303038152906040526040518082805190602001908083835b60208310610d8a5780518252602082019150602081019050602083039250610d67565b6001836020036101000a038019825116818451168082178552505050505050905001915050602060405180830381855afa158015610dcc573d6000803e3d6000fd5b5050506040513d6020811015610de157600080fd5b81019080805190602001909291905050509050858114610e4c576040517f08c379a000000000000000000000000000000000000000000000000000000000815260040180806020018281038252605481526020018061177d6054913960600191505060405180910390fd5b6001602060020a0360205410610ead576040517f08c379a000000000000000000000000000000000000000000000000000000000815260040180806020018281038252602181526020018061175c6021913960400191505060405180910390fd5b60016020600082825401925050819055506000602054905060008090505b6020811015610fed5760018083161415610efe578260008260208110610eed57fe5b018190555050505050505050610ffd565b600260008260208110610f0d57fe5b01548460405160200180838152602001828152602001925050506040516020818303038152906040526040518082805190602001908083835b60208310610f695780518252602082019150602081019050602083039250610f46565b6001836020036101000a038019825116818451168082178552505050505050905001915050602060405180830381855afa158015610fab573d6000803e3d6000fd5b5050506040513d6020811015610fc057600080fd5b8101908080519060200190929190505050925060028281610fdd57fe5b0491508080600101915050610ecb565b506000610ff657fe5b5050505050505b50505050505050565b6060611013602054611352565b905090565b6000806000602054905060008090505b602081101561120657600180831614156111165760026000826020811061104b57fe5b01548460405160200180838152602001828152602001925050506040516020818303038152906040526040518082805190602001908083835b602083106110a75780518252602082019150602081019050602083039250611084565b6001836020036101000a038019825116818451168082178552505050505050905001915050602060405180830381855afa1580156110e9573d6000803e3d6000fd5b5050506040513d60208110156110fe57600080fd5b810190808051906020019092919050505092506111ec565b6002836021836020811061112657fe5b015460405160200180838152602001828152602001925050506040516020818303038152906040526040518082805190602001908083835b60208310611181578051825260208201915060208101905060208303925061115e565b6001836020036101000a038019825116818451168082178552505050505050905001915050602060405180830381855afa1580156111c3573d6000803e3d6000fd5b5050506040513d60208110156111d857600080fd5b810190808051906020019092919050505092505b600282816111f657fe5b0491508080600101915050611028565b50600282611215602054611352565b600068010000000000000000026040516020018084815260200183805190602001908083835b6020831061125e578051825260208201915060208101905060208303925061123b565b6001836020036101000a0380198251168184511680821785525050505050509050018267ffffffffffffffff191667ffffffffffffffff1916815260180193505050506040516020818303038152906040526040518082805190602001908083835b602083106112e357805182526020820191506020810190506020830392506112c0565b6001836020036101000a038019825116818451168082178552505050505050905001915050602060405180830381855afa158015611325573d6000803e3d6000fd5b5050506040513d602081101561133a57600080fd5b81019080805190602001909291905050509250505090565b6060600867ffffffffffffffff8111801561136c57600080fd5b506040519080825280601f01601f19166020018201604052801561139f5781602001600182028036833780820191505090505b5090506000827801000000000000000000000000000000000000000000000000029050806007600881106113cf57fe5b1a7f010000000000000000000000000000000000000000000000000000000000000002826000815181106113ff57fe5b60200101907effffffffffffffffffffffffffffffffffffffffffffffffffffffffffffff1916908160001a9053508060066008811061143b57fe5b1a7f0100000000000000000000000000000000000000000000000000000000000000028260018151811061146b57fe5b60200101907effffffffffffffffffffffffffffffffffffffffffffffffffffffffffffff1916908160001a905350806005600881106114a757fe5b1a7f010000000000000000000000000000000000000000000000000000000000000002826002815181106114d757fe5b60200101907effffffffffffffffffffffffffffffffffffffffffffffffffffffffffffff1916908160001a9053508060046008811061151357fe5b1a7f0100000000000000000000000000000000000000000000000000000000000000028260038151811061154357fe5b60200101907effffffffffffffffffffffffffffffffffffffffffffffffffffffffffffff1916908160001a9053508060036008811061157f57fe5b1a7f010000000000000000000000000000000000000000000000000000000000000002826004815181106115af57fe5b60200101907effffffffffffffffffffffffffffffffffffffffffffffffffffffffffffff1916908160001a905350806002600881106115eb57fe5b1a7f0100000000000000000000000000000000000000000000000000000000000000028260058151811061161b57fe5b60200101907effffffffffffffffffffffffffffffffffffffffffffffffffffffffffffff1916908160001a9053508060016008811061165757fe5b1a7f0100000000000000000000000000000000000000000000000000000000000000028260068151811061168757fe5b60200101907effffffffffffffffffffffffffffffffffffffffffffffffffffffffffffff1916908160001a905350806000600881106116c357fe5b1a7f010000000000000000000000000000000000000000000000000000000000000002826007815181106116f357fe5b60200101907effffffffffffffffffffffffffffffffffffffffffffffffffffffffffffff1916908160001a90535050919050565b6000808585111561173857600080fd5b8386111561174557600080fd5b600185028301915084860390509450949250505056fe4465706f736974436f6e74726163743a206d65726b6c6520747265652066756c6c4465706f736974436f6e74726163743a207265636f6e7374727563746564204465706f7369744461746120646f6573206e6f74206d6174636820737570706c696564206465706f7369745f646174615f726f6f744465706f736974436f6e74726163743a20696e76616c6964207769746864726177616c5f63726564656e7469616c73206c656e6774684465706f736974436f6e74726163743a206465706f7369742076616c7565206e6f74206d756c7469706c65206f6620677765694465706f736974436f6e74726163743a20696e76616c6964207075626b6579206c656e6774684465706f736974436f6e74726163743a206465706f7369742076616c756520746f6f20686967684465706f736974436f6e74726163743a206465706f7369742076616c756520746f6f206c6f774465706f736974436f6e74726163743a20696e76616c6964207369676e6174757265206c656e677468a26469706673582212200ec9efedd821e9cef55294689f6d68f6aca751c1ef9fc254201bba0a46a88a9664736f6c63430006080033",
  "immutableReferences": {},
  "source": "// THIS IS FOR TESTING PURPOSES ONLY. COPY PASTED FROM MEDALLA CONTRACT\n\n/**\n *Submitted for verification at Etherscan.io on 2020-07-21\n*/\n\n// SPDX-License-Identifier: Apache-2.0\n\npragma solidity 0.6.8;\n\n// This interface is designed to be compatible with the Vyper version.\n/// @notice This is the Ethereum 2.0 deposit contract interface.\n/// For more information see the Phase 0 specification under https://github.com/ethereum/eth2.0-specs\ninterface IDepositContract {\n    /// @notice A processed deposit event.\n    event DepositEvent(\n        bytes pubkey,\n        bytes withdrawal_credentials,\n        bytes amount,\n        bytes signature,\n        bytes index\n    );\n\n    /// @notice Submit a Phase 0 DepositData object.\n    /// @param pubkey A BLS12-381 public key.\n    /// @param withdrawal_credentials Commitment to a public key for withdrawals.\n    /// @param signature A BLS12-381 signature.\n    /// @param deposit_data_root The SHA-256 hash of the SSZ-encoded DepositData object.\n    /// Used as a protection against malformed input.\n    function deposit(\n        bytes calldata pubkey,\n        bytes calldata withdrawal_credentials,\n        bytes calldata signature,\n        bytes32 deposit_data_root\n    ) external payable;\n\n    /// @notice Query the current deposit root hash.\n    /// @return The deposit root hash.\n    function get_deposit_root() external view returns (bytes32);\n\n    /// @notice Query the current deposit count.\n    /// @return The deposit count encoded as a little endian 64-bit number.\n    function get_deposit_count() external view returns (bytes memory);\n}\n\n// Based on official specification in https://eips.ethereum.org/EIPS/eip-165\ninterface ERC165 {\n    /// @notice Query if a contract implements an interface\n    /// @param interfaceId The interface identifier, as specified in ERC-165\n    /// @dev Interface identification is specified in ERC-165. This function\n    ///  uses less than 30,000 gas.\n    /// @return `true` if the contract implements `interfaceId` and\n    ///  `interfaceId` is not 0xffffffff, `false` otherwise\n    function supportsInterface(bytes4 interfaceId) external pure returns (bool);\n}\n\n// This is a rewrite of the Vyper Eth2.0 deposit contract in Solidity.\n// It tries to stay as close as possible to the original source code.\n/// @notice This is the Ethereum 2.0 deposit contract interface.\n/// For more information see the Phase 0 specification under https://github.com/ethereum/eth2.0-specs\ncontract DepositContract is IDepositContract, ERC165 {\n    uint constant GWEI = 1e9;\n\n    uint constant DEPOSIT_CONTRACT_TREE_DEPTH = 32;\n    // NOTE: this also ensures `deposit_count` will fit into 64-bits\n    uint constant MAX_DEPOSIT_COUNT = 2**DEPOSIT_CONTRACT_TREE_DEPTH - 1;\n\n    bytes32[DEPOSIT_CONTRACT_TREE_DEPTH] branch;\n    uint256 deposit_count;\n\n    bytes32[DEPOSIT_CONTRACT_TREE_DEPTH] zero_hashes;\n\n    constructor() public {\n        // Compute hashes in empty sparse Merkle tree\n        for (uint height = 0; height < DEPOSIT_CONTRACT_TREE_DEPTH - 1; height++)\n            zero_hashes[height + 1] = sha256(abi.encodePacked(zero_hashes[height], zero_hashes[height]));\n    }\n\n    /// @notice Query the current deposit root hash.\n    /// @return The deposit root hash.\n    function get_deposit_root() override external view returns (bytes32) {\n        bytes32 node;\n        uint size = deposit_count;\n        for (uint height = 0; height < DEPOSIT_CONTRACT_TREE_DEPTH; height++) {\n            if ((size & 1) == 1)\n                node = sha256(abi.encodePacked(branch[height], node));\n            else\n                node = sha256(abi.encodePacked(node, zero_hashes[height]));\n            size /= 2;\n        }\n        return sha256(abi.encodePacked(\n            node,\n            to_little_endian_64(uint64(deposit_count)),\n            bytes24(0)\n        ));\n    }\n\n    /// @notice Query the current deposit count.\n    /// @return The deposit count encoded as a little endian 64-bit number.\n    function get_deposit_count() override external view returns (bytes memory) {\n        return to_little_endian_64(uint64(deposit_count));\n    }\n\n    /// @notice Submit a Phase 0 DepositData object.\n    /// @param pubkey A BLS12-381 public key.\n    /// @param withdrawal_credentials Commitment to a public key for withdrawals.\n    /// @param signature A BLS12-381 signature.\n    /// @param deposit_data_root The SHA-256 hash of the SSZ-encoded DepositData object.\n    /// Used as a protection against malformed input.\n    function deposit(\n        bytes calldata pubkey,\n        bytes calldata withdrawal_credentials,\n        bytes calldata signature,\n        bytes32 deposit_data_root\n    ) override external payable {\n        // Extended ABI length checks since dynamic types are used.\n        require(pubkey.length == 48, \"DepositContract: invalid pubkey length\");\n        require(withdrawal_credentials.length == 32, \"DepositContract: invalid withdrawal_credentials length\");\n        require(signature.length == 96, \"DepositContract: invalid signature length\");\n\n        // Check deposit amount\n        require(msg.value >= 1 ether, \"DepositContract: deposit value too low\");\n        require(msg.value % GWEI == 0, \"DepositContract: deposit value not multiple of gwei\");\n        uint deposit_amount = msg.value / GWEI;\n        require(deposit_amount <= type(uint64).max, \"DepositContract: deposit value too high\");\n\n        // Emit `DepositEvent` log\n        bytes memory amount = to_little_endian_64(uint64(deposit_amount));\n        emit DepositEvent(\n            pubkey,\n            withdrawal_credentials,\n            amount,\n            signature,\n            to_little_endian_64(uint64(deposit_count))\n        );\n\n        // Compute deposit data root (`DepositData` hash tree root)\n        bytes32 pubkey_root = sha256(abi.encodePacked(pubkey, bytes16(0)));\n        bytes32 signature_root = sha256(abi.encodePacked(\n            sha256(abi.encodePacked(signature[:64])),\n            sha256(abi.encodePacked(signature[64:], bytes32(0)))\n        ));\n        bytes32 node = sha256(abi.encodePacked(\n            sha256(abi.encodePacked(pubkey_root, withdrawal_credentials)),\n            sha256(abi.encodePacked(amount, bytes24(0), signature_root))\n        ));\n\n        // Verify computed and expected deposit data roots match\n        require(node == deposit_data_root, \"DepositContract: reconstructed DepositData does not match supplied deposit_data_root\");\n\n        // Avoid overflowing the Merkle tree (and prevent edge case in computing `branch`)\n        require(deposit_count < MAX_DEPOSIT_COUNT, \"DepositContract: merkle tree full\");\n\n        // Add deposit data root to Merkle tree (update a single `branch` node)\n        deposit_count += 1;\n        uint size = deposit_count;\n        for (uint height = 0; height < DEPOSIT_CONTRACT_TREE_DEPTH; height++) {\n            if ((size & 1) == 1) {\n                branch[height] = node;\n                return;\n            }\n            node = sha256(abi.encodePacked(branch[height], node));\n            size /= 2;\n        }\n        // As the loop should always end prematurely with the `return` statement,\n        // this code should be unreachable. We assert `false` just to be safe.\n        assert(false);\n    }\n\n    function supportsInterface(bytes4 interfaceId) override external pure returns (bool) {\n        return interfaceId == type(ERC165).interfaceId || interfaceId == type(IDepositContract).interfaceId;\n    }\n\n    function to_little_endian_64(uint64 value) internal pure returns (bytes memory ret) {\n        ret = new bytes(8);\n        bytes8 bytesValue = bytes8(value);\n        // Byteswapping during copying to bytes.\n        ret[0] = bytesValue[7];\n        ret[1] = bytesValue[6];\n        ret[2] = bytesValue[5];\n        ret[3] = bytesValue[4];\n        ret[4] = bytesValue[3];\n        ret[5] = bytesValue[2];\n        ret[6] = bytesValue[1];\n        ret[7] = bytesValue[0];\n    }\n}",
  "sourcePath": "/Users/dimiandre/Projects/batch-deposits/contracts/DepositContract.sol",
  "compiler": {
    "name": "solc",
    "version": "0.6.8+commit.0bbfe453.Linux.g++"
  },
  "schemaVersion": "3.2.5",
  "updatedAt": "2020-10-13T17:33:31.232Z",
  "networkType": "ethereum",
  "devdoc": {
    "methods": {
      "deposit(bytes,bytes,bytes,bytes32)": {
        "params": {
          "deposit_data_root": "The SHA-256 hash of the SSZ-encoded DepositData object. Used as a protection against malformed input.",
          "pubkey": "A BLS12-381 public key.",
          "signature": "A BLS12-381 signature.",
          "withdrawal_credentials": "Commitment to a public key for withdrawals."
        }
      },
      "get_deposit_count()": {
        "returns": {
          "_0": "The deposit count encoded as a little endian 64-bit number."
        }
      },
      "get_deposit_root()": {
        "returns": {
          "_0": "The deposit root hash."
        }
      }
    }
  },
  "userdoc": {
    "methods": {
      "deposit(bytes,bytes,bytes,bytes32)": {
        "notice": "Submit a Phase 0 DepositData object."
      },
      "get_deposit_count()": {
        "notice": "Query the current deposit count."
      },
      "get_deposit_root()": {
        "notice": "Query the current deposit root hash."
      }
    },
    "notice": "This is the Ethereum 2.0 deposit contract interface. For more information see the Phase 0 specification under https://github.com/ethereum/eth2.0-specs"
  }
}